:020000040800F2
:10000000000E00209D010008910E0008A90D0008B7
:100010008D0E0008E90200088D0F000800000000A6
:10002000000000000000000000000000950E000825
:10003000ED02000800000000930E0008990E000871
:10004000B7010008B7010008B7010008B7010008B0
:10005000B7010008B7010008B7010008B7010008A0
:10006000B7010008B7010008B7010008B701000890
:10007000B7010008B7010008B7010008B701000880
:10008000B7010008B7010008B7010008B701000870
:10009000B7010008B7010008B7010008B701000860
:1000A000B7010008B7010008B7010008B701000850
:1000B000B7010008B7010008B7010008B701000840
:1000C000B7010008B7010008B7010008B701000830
:1000D000B7010008B7010008B7010008B701000820
:1000E000B7010008B7010008B7010008B701000810
:1000F000B7010008B7010008B7010008B701000800
:10010000B7010008B7010008B7010008B7010008EF
:10011000B7010008B7010008B7010008B7010008DF
:10012000B7010008B7010008B7010008B7010008CF
:10013000B7010008B7010008B7010008B7010008BF
:10014000B7010008B7010008B7010008B7010008AF
:10015000B7010008B7010008B7010008B70100089F
:10016000B7010008B7010008B7010008B70100088F
:10017000B7010008B7010008B7010008000000003F
:10018000B7010008B7010008DFF80CD000F09AF8BA
:1001900000480047CD100008000E002006488047A8
:1001A00006480047FEE7FEE7FEE7FEE7FEE7FEE75C
:1001B000FEE7FEE7FEE7FEE7710F00088901000891
:1001C0002DE9F05F0546002092469B46884606468C
:1001D000814640241BE0284641464746224600F01F
:1001E00061F853465A46C01A914110D31146184639
:1001F000224600F048F82D1A67EB01084F462246C8
:100200000120002100F03FF817EB00094E41201EAD
:10021000A4F10104DFDC484631462A464346BDE8E6
:10022000F09F10B5431A934209D28318881803E04F
:1002300010F8011D03F8011D521EF9D210BD40EA4D
:1002400001039B0703D009E008C9121F08C0042A54
:10025000FAD203E011F8013B00F8013B521EF9D23B
:1002600010BDD2B201E000F8012B491EFBD270474D
:100270000022F6E710B513460A4604461946FFF772
:10028000F0FF204610BD202A04DB203A00FA02F1DC
:10029000002070479140C2F1200320FA03F3194374
:1002A00090407047202A04DB203A21FA02F0002116
:1002B000704721FA02F3D040C2F120029140084376
:1002C00019467047064C074D06E0E06840F0010310
:1002D00094E8070098471034AC42F6D3FFF758FF74
:1002E000B4110008D411000800BFFEE77047704742
:1002F000F8B502460B460025002400200021DCE072
:10030000012606FA01F51E6806EA0504AC4273D11F
:100310005E68012E08D05E68022E05D05E68112E40
:1003200002D05E68122E13D190684F000326BE40A3
:10033000B0434F00DE68BE403043906050680126F5
:100340008E40B0431E79C6F300168E403043506095
:10035000D0684F000326BE40B0434F009E68BE40A9
:100360003043D0605E68022E02D05E68122E13D138
:10037000CF0802F1200656F827004E07F70E0F2689
:10038000BE40B0434F07FF0E1E69BE403043CF084A
:1003900002F1200646F8270010684F000326BE40F1
:1003A000B0431E7906F003064F00BE403043106094
:1003B0005E6806F08056B6F1805F7DD100BF0026F2
:1003C0000096404E366846F480463E4F3E603E46BC
:1003D000366806F48046009600BF00BF3A4E8F088C
:1003E00056F827008E07370F0F26BE40B043374E12
:1003F000B24202D1002624E05EE0354EB24201D185
:1004000001261EE0334EB24201D1022619E0324EDF
:10041000B24201D1032614E0304EB24201D104268B
:100420000FE02F4EB24201D105260AE02D4EB24216
:1004300001D1062605E02C4EB24201D1072600E08C
:1004400008268F073F0FBE4030431F4E8F0846F8E7
:100450002700264E3068A0435E6806F48036B6F565
:10046000803F00D12043214E3060361D3068A043CC
:100470005E6806F40036B6F5003F00D120431B4EFF
:10048000361D3060361D3068A0435E6806F4801665
:10049000B6F5801F00D12043144E08363060361D5B
:1004A0003068A0435E6806F40016B6F5001F00D160
:1004B00020430E4E0C363060491C1029FFF420AF4B
:1004C000F8BD0000443802400838014000000240F6
:1004D0000004024000080240000C024000100240EC
:1004E0000014024000180240001C0240003C014081
:1004F000024613690B400BB1012000E00020704759
:1005000042690A408A4202D10A04826100E08161A4
:1005100070470AB1816101E00B04836170470000FC
:1005200001480068704700000C0000200348006884
:100530000349097808440149086070470C0000200D
:100540001400002010B50D48006840F400700B49FD
:1005500008600846006840F480600860084600684B
:1005600040F480700860032000F092F8002000F052
:1005700007F800F02BF8002010BD0000003C0240FE
:1005800070B504460E4800784FF47A71B1FBF0F074
:100590000C490968B1FBF0F5284600F0EBFB08B107
:1005A000012070BD102C07D200222146501E00F001
:1005B00031F80548046001E00120F2E70020F0E78F
:1005C00014000020180000201000002008B500BF13
:1005D000002000900E48006840F480400C490860FC
:1005E0000846006800F48040009000BF00BF00BFD4
:1005F00000200090081F006840F08050091F08602C
:100600000846006800F08050009000BF00BF08BDA1
:10061000443802402DE9F05F80460D46164600271B
:1006200000F0B6FC074639462A46334601F007007B
:10063000C0F1070ABAF1040F02D94FF0040A01E031
:10064000C0F1070AD14600F1040ABAF1070F02D23D
:100650004FF0000A01E0A0F1030AD4464FF0010A6E
:100660000AFA09FAAAF1010A0AEA020A0AFA0CFAD3
:100670004FF0010B0BFA0CFBABF1010B0BEA030B78
:100680004AEA0B042146404600F08AFCBDE8F09F90
:1006900000BF00F00702064B19684FF6FF03194030
:1006A000044B0B4343EA0221014B196000BF704722
:1006B0000CED00E00000FA0570B504460D460CB9DB
:1006C000012070BD5848006800F00F00A84209D210
:1006D00055490D700846006800F00F00A84201D08F
:1006E0000120EEE7207800F0020002281DD12078DA
:1006F00000F00400042805D14C48006840F4E050A4
:100700004A490860207800F00800082805D14748C9
:10071000006840F46040454908604448006820F0A3
:10072000F000A168084341490860207800F001000A
:10073000A8B36068012807D13C4808380068C0F3B6
:100740004040B8B90120BCE76068022802D0606868
:10075000032807D1354808380068C0F3406048B91D
:100760000120AEE7314808380068C0F3400008B9FE
:100770000120A6E72D48006820F0030061680843C7
:100780002A490860FFF7CCFE064609E0FFF7C8FEDD
:10079000801B41F28831884202D9032091E707E0AB
:1007A0002248006800F00C006168B0EB810FEDD1C9
:1007B0001D48006800F00F00A84209D91A490D70C1
:1007C0000846006800F00F00A84201D0012078E739
:1007D000207800F00400042807D11448006820F4B1
:1007E000E050E168084311490860207800F00800F3
:1007F000082808D10D48006820F46040216940EACB
:10080000C1000A49086000F019F808490968C1F3F5
:100810000311074A515CC840064908600648006851
:10082000FFF7AEFE00204CE7003C024008380240D3
:100830009C11000818000020100000202DE9F0474E
:10084000002400250026A1462548006800F00C0081
:1008500020B1042805D008283AD105E0DFF88490BB
:1008600039E0DFF8849036E01D48001F006800F092
:100870003F041B48001F006800F4800078B11A484C
:100880001749091F0968C1F38811A0FB01700146CF
:10089000224600233846FFF793FC05460EE0114838
:1008A0000F49091F0968C1F38811A0FB01700146B7
:1008B000224600233846FFF783FC05460848001F00
:1008C0000068C0F30140401C4600B5FBF6F902E0A9
:1008D000DFF8109000BF00BF4846BDE8F087000079
:1008E000083802400024F40000127A00F8B50446EB
:1008F0000CB90120F8BD207800F00100002874D068
:10090000F948006800F00C0004280DD0F648006893
:1009100000F00C00082813D1F348001F006800F411
:100920008000B0F5800F0BD1EF4808380068C0F3A5
:100930004040002859D06068002856D10120D9E7EE
:1009400000BF6068B0F5803F08D1E748083800680C
:1009500040F48030E449083908601EE06068B0F572
:10096000A02F0DD1E0480838006840F48020DE490F
:10097000083908600846006840F4803008600CE0E0
:10098000D9480838006820F48030D7490839086011
:100990000846006820F48020086000BF606890B1BD
:1009A000FFF7BEFD054606E0FFF7BAFD401B6428D1
:1009B00001D903209EE7CC4808380068C0F34040C6
:1009C0000028F1D011E0FFF7ABFD054606E0FFF788
:1009D000A7FD401B642801D903208BE7C2480838D3
:1009E0000068C0F340400028F1D1207800F00200F8
:1009F00002285FD1BC48006800F00C0058B1BA482A
:100A0000006800F00C0008281CD1B748001F0068DF
:100A100000F48000B0B9B44808380068C0F3400062
:100A200020B1E068012801D0012063E7AE48083812
:100A3000006820F0F800216940EAC100AA4908399D
:100A4000086037E0E06800B30120A8490860FFF7BC
:100A500067FD054606E0FFF763FD401B022801D94C
:100A6000032047E7A04808380068C0F3400000288A
:100A7000F1D09D480838006820F0F800216940EA6C
:100A8000C10099490839086014E0002097490860BE
:100A9000FFF746FD054606E0FFF742FD401B022832
:100AA00001D9032026E7904808380068C0F34000C9
:100AB0000028F1D1207800F0080008282CD16069C6
:100AC000A8B101208A490860FFF72AFD054606E023
:100AD000FFF726FD401B022801D903200AE78248C0
:100AE0006C300068C0F340000028F1D014E0002012
:100AF0007F490860FFF714FD054606E0FFF710FD8B
:100B0000401B022801D90320F4E677486C300068C6
:100B1000C0F340000028F1D1207800F00400042840
:100B200070D1002770483830006800F0805090B9CC
:100B300000BF002000906C483830006840F08050C2
:100B40006949383108600846006800F0805000901C
:100B500000BF00BF01276748006800F48070B0B98B
:100B60006448006840F4807062490860FFF7D8FC70
:100B7000054606E0FFF7D4FC401B022801D90320FC
:100B8000B8E65C48006800F480700028F2D000BF2E
:100B9000A068012808D154486830006840F001007E
:100BA0005149683108601DE0A06805280DD14E4804
:100BB0006830006840F004004B496831086008461E
:100BC000006840F0010008600CE0474868300068A9
:100BD00020F001004449683108600846006820F0B0
:100BE0000400086000BFA068A8B1FFF799FC0546A3
:100BF00009E0FFF795FC401B41F28831884202D999
:100C0000032077E626E0384868300068C0F34000EB
:100C10000028EED013E0FFF783FC054608E0FFF75D
:100C20007FFC401B41F28831884201D9032061E6F4
:100C30002D4868300068C0F340000028EFD1012F34
:100C400007D129483830006820F0805026493831D3
:100C5000086000BFA069002845D02348006800F064
:100C60000C0008285DD0A069022845D100201F494A
:100C70000866FFF755FC054606E0FFF751FC401BF0
:100C8000022801D9032035E6174808380068C0F368
:100C900040600028F1D1D4E907010843616A40EAC5
:100CA00081110122A06AC2EB500041EA00412C20D0
:100CB000005D41EA00600C49091F086001200B49F2
:100CC0000866FFF72DFC054606E0FFF729FC401BF0
:100CD000022801D903200DE6034808380068C0F354
:100CE00040600028F1D03FE0083802400000474251
:100CF000800E47420070004000201C490866FFF744
:100D00000FFC054606E0FFF70BFC401B022801D94B
:100D10000320EFE516480068C0F340600028F2D1D8
:100D200022E0A069012800D1E4E51148001D066811
:100D300006F48001E069814214D106F03F01206A87
:100D400081420FD147F6C0703040616A884209D1B4
:100D500006F44031A06A814204D106F07061E06A75
:100D6000814201D00120C5E50020C3E500004742D3
:100D70000038024070B504462546681EB0F1807FF9
:100D800001D301200FE0681E4FF0E02148610F21E0
:100D90004FF0FF3000F004F900204FF0E0218861AF
:100DA00007200861002070BD00BFFEE700B587B0D6
:100DB000142102A8FFF75CFA00BF00200190304820
:100DC000006840F010002E4908600846006800F0F6
:100DD0001000019000BF00BF00BF00200190084636
:100DE000006840F0800008600846006800F080005D
:100DF000019000BF00BF00BF0020019008460068BE
:100E000040F0020008600846006800F0020001900F
:100E100000BF00BF00BF002001900846006840F0FE
:100E2000010008600846006800F00100019000BF62
:100E300000BF002204211348FFF76BFB042002903F
:100E40000120039000200490059002A90D48FFF7AF
:100E50004FFA4FF48040029000200390049002A9C2
:100E60000848FFF745FA4FF48040029000200390B5
:100E7000049002A90448FFF73BFA07B000BD000048
:100E800030380240001002400004024000BFFEE77C
:100E9000704770477047000010B506480088401C36
:100EA0000449088004480088401C03490880FFF773
:100EB0003DFB10BD020000200600002000B593B0ED
:100EC000302107A8FFF7D4F9142102A8FFF7D0F9C1
:100ED00000BF002001902448006840F08050224963
:100EE00008600846006800F08050019000BF00BF15
:100EF00000BF002001901D48006840F480401B495D
:100F000008600846006800F48040019000BF00BF00
:100F1000012007900004089002200D9041050E91D9
:100F200004210F91A8211091022111910421129105
:100F300007A8FFF7DBFC08B1FFF7D9F90F200290F3
:100F400002200390002004904FF4A05005904FF42D
:100F500080500690052102A8FFF7AEFB08B1FFF70D
:100F6000C6F913B000BD00004038024000700040D8
:100F70000548006840F47000034908604FF00060C5
:100F8000014980390860704788ED00E000BFFEE746
:100F900002480068C0F30220704700000CED00E03A
:100FA00010B5002804DB0A07130E054A135406E0A7
:100FB0000A07140E034A00F00F031B1FD45410BD80
:100FC00000E400E018ED00E002E008C8121F08C1CC
:100FD000002AFAD170477047002001E001C1121FBA
:100FE000002AFBD1704700000120014908707047BA
:100FF0000000002070B504461F480078012800D08A
:1010000070BD72B6002005E04FF0FF321B4941F879
:101010002020401C0828F7DB002005E04FF0FF32BD
:10102000174941F82020401C0828F7DB002080F3F6
:10103000148800BF206880F3088800BF656800BF7F
:1010400000BF00BFBFF36F8F00BF00BF00BF00BF76
:1010500000BF00BFBFF34F8F00BF00BF00BF4FF006
:10106000E020006920F005004FF0E02108612E46E5
:1010700000E0B047FDE700000000002080E100E054
:1010800080E200E010B572B64FF480620C490D4862
:10109000FFF7C7F84FF000600B49086000BF00BFC2
:1010A00000BFBFF34F8F00BF00BF00BF00BF00BF36
:1010B00000BFBFF36F8F00BF00BF00BF10BD0000B7
:1010C000000200200006002008ED00E0FFF7DAFF34
:1010D000FFF738FAFFF7F2FE62B6FFF767FEFFF799
:1010E00083FF00202449088024490880244908807F
:1010F00024490870244908703DE02148008864288C
:1011000018DD00201E4908804FF480411F48FFF77A
:10111000EFF908B9012000E000201A4908704FF4E7
:1011200000411B48FFF7E4F908B9012000E0002066
:101130001549087010480088B0F57A7F06DD002058
:101140000D49088004211248FFF7DAF90D480078AC
:10115000012806D100200B4908700E48FFF74AFF0E
:1011600009E009480078012805D1002006490870E7
:101170000948FFF73FFFC0E70200002004000020FD
:1011800006000020080000200900002000040240A2
:1011900000100240000002080000040800000000E7
:1011A0000000000001020304060708090000000017
:1011B00001020304D4110008000000201C000000FC
:1011C000C80F0008F01100081C000020E40D00000A
:1011D000D80F000800000000000000000000000020
:1011E0000000000010000000010000000024F400D6
:040000050800018965
:00000001FF
